:020000040000FA
:1000000000000420550400005D040000C902000047
:10001000CF020000D5020000DB020000000000005B
:10002000000000000000000000000000910300003C
:1000300069040000000000002904000039040000E9
:100040006F040000F17E00006F0400006F040000E8
:10005000E17A0000417F0000F77E0000F97E000099
:10006000F37E00006DCC0000E7CA00006F040000C2
:100070006F0400006F0400006F0400006F040000B4
:100080006F0400006F04000001CB00006F0400004B
:100090006F0400006F0400006F0400006F04000094
:1000A0006F0400006F0400006F0400006F04000084
:1000B000437F0000F57E0000CBCF0000777F00007B
:1000C0006F040000F76100006F0400006F0400007F
:1000D0006F0400006F0400006F0400006F04000054
:1000E0006F0400006F0400006F0400006F04000044
:1000F0006F0400006F0400006F0400006F04000034
:100100006F0400006F0400000000000000F002F81F
:1001100017F04CFE0AA090E8000C82448344AAF138
:100120000107DA4501D117F041FEAFF2090EBAE836
:100130000F0013F0010F18BFFB1A43F0010318471B
:10014000603B0800803B08000A444FF0000C10F8A8
:10015000013B13F0070408BF10F8014B1D1108BF45
:1001600010F8015B641E05D010F8016B641E01F8E5
:10017000016BF9D113F0080F1EBF10F8014BAD1C35
:100180000C1B09D16D1E58BF01F801CBFAD505E053
:1001900014F8016B01F8016B6D1EF9D59142D6D3AD
:1001A000704700000023002400250026103A28BFD5
:1001B00078C1FBD8520728BF30C148BF0B607047D9
:1001C0006E2908F0C183702908F0A784662938F0E9
:1001D0001EA7652938F01BA7672938F018A76129E1
:1001E00038F017A703681B0A28BF41F0800169296E
:1001F00008F06E83642908F06B83752908F0688322
:100200006F2908F03584782908F07384E92909F00A
:10021000D587E42909F0D287F52909F0CF87EF299E
:1002200008F03284F82908F072840368DB0928BFDB
:1002300041F08001632909F09E87732909F0A387A3
:10024000E32909F0AE87F32909F0B387002070474E
:100250001FB578F0CFFE9DE8030009F0A6FC08F07A
:1002600098FF09F085FC04000020002178F010FAC6
:10027000401C60600020002178F036FAE060002029
:10028000002178F01BFA20610AF0F8FA09F054FC1A
:100290001FBD00000B49D1F800C04A685CF8043B60
:1002A0001068184442F8040B8C4528BFA1F1DC0CFF
:1002B0008A4228BFA1F1DC02C1F800C04A6020F0E8
:1002C00000407047F00C00204FF0100308E04FF0A2
:1002D000200305E04FF0300302E04FF0400300BF81
:1002E000EFF308804FF0040172460A4201D0EFF3A9
:1002F00009809C46254B196802680A6004314268EF
:100300000A60043182680A600431C2680A600431FC
:10031000F0C147460F6004314F460F600431574625
:100320000F6004315F460F60043102690A600831D2
:1003300042690A60043182690A600431C2690A6054
:100340000431034620334FF40076324200D00433A8
:1003500075464FF01006354200D148330C46103C2C
:100360002360EFF309820A600431EFF308820A6028
:10037000043172460A600431EFF314820A60604669
:10038000024B196830F05EFDFEE7000004DC070058
:100390001EF0040F0CBFEFF30880EFF309808169B2
:1003A00011F8021C91BB01B590E80F10E047BDE8C1
:1003B00000508CE80300244B93E80600914208BFEC
:1003C000704741B91EF0100F10D12049086820F085
:1003D000010008600AE02CE9F00F1EF0100F08BFC2
:1003E0002CED108AC1F838C081F822E01A6092F82A
:1003F0002210906B61F0FF0E1EF0100F08BFB0ECE2
:10040000108AB0E8F00F80F309887047104A13682B
:100410009942FAD801B552F821C00FC8E047BDE8AB
:100420000050CCF80000704701B551F0F1FABDE87A
:100430000140EFF3098CBEE701B551F00AFEBDE8BB
:100440000140EFF3098CB6E72006002034EF00E00E
:1004500024E207000648804706480047FEE7FEE71B
:10046000FEE7FEE7FEE7FEE7FEE7FEE7FEE7FEE764
:100470009FD200000D01000038B5044667480460B3
:100480000D46204600F065F929462046BDE8344077
:1004900000F022B90120704761480170012908BFAE
:1004A00002F046BD0020704702F04CBD5C4A127855
:1004B000012A0A460CBF012300230146184602F018
:1004C00059BD01F00CBA0846114600F0A7B97047B3
:1004D000084611461A4601F054BD01F067BD0846B2
:1004E000114602F034BC4F4801680B0000D1704740
:1004F00010B54FF0FF34A14205D000230360104631
:10050000BDE81040084710BD10B5464C022982B026
:10051000226004D1201D00F08AFD002016BD00934A
:100520000A460146404B201D00F062FD0028F4D031
:10053000022016BD00213D4800F0A8BD3B4800F058
:1005400076BD3A4800F084BD80B5364801684FF06A
:10055000FF32914201D1002002BD001D00F078FD64
:1005600000F0010080F0010002BD02207047002071
:10057000704700207047012070470020704770B519
:10058000264E0FF2281504467068A8420CBF0120C1
:10059000002084420CD0306820B101F0DDFC08B1AD
:1005A000002070BD002C12BF75600FF2D800706083
:1005B000012070BD10B50C4611461A460346204670
:1005C000164C64682468A04710BD14484068406811
:1005D0000047124840688068004710484068C0687B
:1005E00000470E4840680069004710B582B0049C7F
:1005F00000940A4C64686469A04716BD07494968BD
:100600008969084705494968C9690847034949682C
:10061000096A0847014A5268526A104710010020CF
:10062000C4070020C8070020E7040000CC07002012
:100630000C3000F0C7BA0C3000F0D3BA0C3000F028
:10064000E0BA0C3000F0EFBA0C3000F0F9BA80B527
:1006500001F090FD002002BD0C3002F020BE0C30F5
:1006600002F02CBE0C3002F057BE0C3001F0E6BA9E
:1006700080B5084602F045FA002002BD084602F0A7
:1006800052BA0000A31E0000151F0000211F000029
:10069000451F0000591F00006B0500006F0500009A
:1006A00073050000770500007B05000009050000C8
:1006B000350500003D050000490500004305000028
:1006C000F10F00002F100000511000006710000013
:1006D0008D1000000120704710B5044600F0CEFFD9
:1006E00008B1002010BD204610BD024600200C328B
:1006F00000291CBF104602F085B9704770B50D0087
:10070000044614BF012600261F21304602F0F8FDE2
:100710000020606225621F21304602F0F1FD4FF695
:10072000FF76002001E0401CC0B2E968884209D28F
:10073000A968182212FB00F21144C989B142F2DA09
:100740000E00F0D13146204600F0D0F8304670BDA2
:10075000704710B5044601F040F8A06A0100DFF8C8
:100760005C1308BFDFF85803886010BD70B51546EC
:1007700000F10C0628000C4608BFDFF84453304651
:10078000FFF7A8FF08B1CD48856021463046BDE897
:100790007040B3E710B50124002818BF002906D027
:1007A0000860CB604FF0FF3048608A60002420462C
:1007B00010BD2DE9F8430446C248066806F10C094D
:1007C0000D4690464846FFF785FF012748B120684F
:1007D000864206D143462A462146484602F0D6F8CC
:1007E00007463846BDE8F28338B500F10C050C46E3
:1007F0002846FFF76FFF28B101F071F8012801D0FA
:10080000022032BD21462846BDE8344001F03DB803
:10081000AA4840687047A9480068704710B50C4660
:1008200001F048F81CB101F05AF80128FBD110BDC5
:100830000C3001F094BB0C3001F09ABB0C3002F08C
:1008400099BA70B5C26A0120002300E05B1CD4682D
:10085000A3420AD2946818255D432C44E689B1422C
:1008600024BF248A8C42F1D3002070BD70B50446A9
:1008700004F10C060D463046FFF72CFF48B101226B
:1008800000212046FFF71FFE29463046BDE8704094
:100890002CE0022070BD10B50C300C46416A09B93D
:1008A000032010BD0CB9012010BD00F0F5F8208028
:1008B000002010BDF0B504468248066883B00D469E
:1008C0006946204601F04EFCB5F91220012747F693
:1008D000FF702479824207D09DF80010304600F066
:1008E000C9FCA04238BF00273846FEBD2DE9F04FB5
:1008F00085B04FF000098DF8019004466F4F8DF8D8
:1009000000900D463868D7F804A00290CDF804A0F6
:10091000204600F0C1F88046266AD4F824B000F0E2
:1009200006F9002818BFD34505D1BBF1000F02D04E
:10093000A8B240454BD0002E1CBFB068002801D0A3
:10094000F06808B903209CE0CA4601E00AF1010AF8
:10095000F068824518D2B068182101FB0AF1014401
:10096000A8B2CA89904222BF088AAAB29042EDD3A7
:1009700001208DF800008B462046FFF79BFF0028E2
:10098000E4D001208DF8010003A9204601F0EAFB24
:10099000204601F0EDFB82469DF80100C0B12179AF
:1009A00000F073F8386860B3B04223D17A680AB3B4
:1009B0005A451FD1A9B2884506D00023204601F030
:1009C000EEFB5FEA000912D1C4F824B0658057E05D
:1009D0009DF8000048B1BBF912209DF80C10A4F15D
:1009E0000C0000F047FC0146DAE7012049E000F086
:1009F0004BF83FE0016821B13268914208BF41687D
:100A000000D0316800F045F881465FEA090004D162
:100A1000DBF8001000F03DF881465FEA09000FD1D5
:100A200000F085F810B13E60C7F804B0C4F824B0F7
:100A3000658001235A46A9B2204601F0B0FB8146E9
:100A40005FEA090005D1BA685946A4F10C00904745
:100A500016E000F06CF898B1029838600198786060
:100A6000386808B100F014F800F00EF8786838B172
:100A700000F00EF87A6800234146204601F08FFB13
:100A8000484605B0BDE8F08F5146204601F05ABBFC
:100A90000168204601F0B6BF40887047022202710B
:100AA00003224271012282710022427209B10121A6
:100AB000054AC171002303720260704718010020CB
:100AC0005107000010010020E7AC0F35026A012A2F
:100AD00004BF00220263016200207047006A704771
:100AE00001281CBF0428022801D1012070470020E2
:100AF000704738B500F03CF840B16878FFF7F0FF78
:100B000020B1287869780843400701D5012032BD1B
:100B100000F00DF828B100F0E2FE400701D50220F8
:100B200032BD29462046BDE8344001F0A2BA204635
:100B3000D0E50C30DDE738B500F01AF838B1687848
:100B4000FFF7CEFF00281CBF6878042801D10120E0
:100B500032BDFFF7ECFF28B100F0C1FE800701D5E0
:100B6000022032BD29462046BDE8344001F0AABA31
:100B70000D4604462878B3E70C30DCE70C3001F072
:100B800026BE30B583B00C30DDE90645CDE9004521
:100B900000F0EDFD3EBD0C3001F076BE0C3001F0F2
:100BA000C2BE084602F01CB938B504460D4600F036
:100BB000CBFE08B9022032BDA9B22046BDE83440C0
:100BC000FFF794BE38B50446154689B2FFF7ECFF2F
:100BD000010005D129462046BDE8344000F02ABF77
:100BE00032BD70B500F01AF8010006D13246294630
:100BF0002046BDE8704000F026BF70BD0C3001F00B
:100C000012B870B500F00AF8010006D13246294644
:100C10002046BDE8704000F072BF70BD0446154626
:100C20001E4689B2C0E770B5FFF7F8FF010006D194
:100C3000324629462046BDE8704000F021BF70BD15
:100C400070B5D4B2250018BF012C01D0012070BDB1
:100C500089B2FFF74BFE06000BD101210120FFF7FF
:100C6000DDFD14B901F08DFA03E0012C08BF01F09D
:100C70008FFA304670BD0C3001F044BA0C3001F0F0
:100C800077BA7CB50D466946044600F02DF89DF80C
:100C900000102A46204600F0EDFA04F10C06014649
:100CA000304601F02FFA76BD30B583B06946044670
:100CB00000F01AF804F10C05284601F059FA024632
:100CC0009DF80010204600F03DFB3EBD38B50C46B7
:100CD00000F10C050021284601F014FA21462846AF
:100CE000BDE8344001F001BA0C3001F03BBA0C30E1
:100CF00000F08DBC01F0BBB90C3002F071B90C30C2
:100D000002F077B90120704738B500F01BF80021D8
:100D10002561E160BDE832400BF0DABA38B500F089
:100D200011F82169E26829400D0018BF012511431F
:100D3000E1600BF0CDFA15B10020042134BD002094
:100D4000002134BD04460D460BF0B8BA38B5FFF7A4
:100D5000F9FF2269E1682A4021EA0205E5600BF00B
:100D6000B7FA284632BD006970478069704770B590
:100D700082B005460C0006BF0FF2D800006820685C
:100D80001646009006B9EE6831462846FFF7DEFFAA
:100D900032466946284601F00BF90CB100982060F4
:100DA00073BDF8B500F10C070C4615463846FFF741
:100DB000A9FF022628B12A4621463846FFF7D7FF69
:100DC00000263046F2BD38B50C4600F10C054FF454
:100DD00080312846FFF7BAFF21462846BDE8344057
:100DE00001F012B970B500F10C060C463046FFF761
:100DF00089FF022548B14FF480313046FFF7A6FF46
:100E00002146304601F012F90546284670BD38B536
:100E100000F10C052846FFF775FF022438B10121C7
:100E20002846FFF793FF284601F01CF904462046A8
:100E300032BD80B50C3001F00111FFF765FF0020D5
:100E400002BD0C3001F0C3BE0C3001F0E6BE0C3028
:100E500001F01DB8FFFFFFFF70B50D4682B00446DC
:100E6000287858B90021204601F0E6F900212046F3
:100E700001F03AFA0021204601F03EFA28780028D5
:100E800014BF0420287900F027F814BF2879687966
:100E90008DF801002046FFF74EFE06001AD1287893
:100EA000002814BF0220A87900F016F814BFA87912
:100EB000E8798DF801002046FFF71BFE060009D1F6
:100EC000287838B16988204601F0C2F9012120460E
:100ED00001F0B2F9304676BD8DF8000069462878F9
:100EE000002870470C30B7E70C3001F0AEB9412A4A
:100EF000BCBF0C3001F0BEB9012070470C3001F0CE
:100F00000CBA0C3001F028BA0C3001F083BA0C3066
:100F100001F0EAB90C3001F0F9B90C3001F0ECB98C
:100F20000C3001F0F6B9012070470C3001F0A6BA80
:100F30000C3000F045BD0C3001F0E0BB0C3001F08E
:100F4000D9BA0846114601F0FBBA0846114601F02D
:100F500015BB01F07FBB084601F07EBB0C3001F0F1
:100F600086BB0C3001F0ABBB0C3001F0BBBB0C30CE
:100F700001F0BBBB0C3001F0BBBB0C3001F0BBBBC4
:100F800038B5144600F10C0511B1284601F0E4FB18
:100F900024B12846BDE8324001F0F4BB31BD70B544
:100FA0000C4615461E460C30FFF7BDFF38B1049BBA
:100FB000324629462046BDE8704000F017BC70BD9F
:100FC000084601F007BF084601F006BF084601F0D9
:100FD00005BF01F02BBE01F030BE10B5044602F093
:100FE0001DFA20B92046BDE8104002F0E5B910BD59
:100FF0002DE9F04184B004460D4616461F460BF01D
:1010000057F9804600F040F80A98029000970020B7
:101010000190002332462946204602F000FA044699
:1010200040460BF051F9204604B0BDE8F08170B5A0
:1010300004460BF03DF900F026F8204602F0D2FA03
:10104000002500B9012530460BF03EF9284670BD59
:1010500038B504460BF02CF9054600F015F820468B
:1010600002F0DAFA09E038B504460BF021F905463A
:1010700000F00AF8204602F0D5FA044628460BF0A4
:1010800023F9204632BD06462046A6E770B5044641
:101090000D460BF00DF9FFF7F6FF2946204602F04A
:1010A000C9FA044630460BF00FF9204670BD000027
:1010B0000120704770B50C4684B000F10C05237E0A
:1010C000627EA17E284602F098F8684604F10C0181
:1010D0000C2208F0A9F96946284601F04BFE211DB3
:1010E0002846FFF7B9FE060003D1284602F0BCF8F7
:1010F0000646300005D10FF26411284601F0A5FD27
:101100000646300003D1284601F0F8FF0646216864
:10111000284600F01CF8304604B070BD0C3001F0D9
:10112000E6BF38B500F10C052846FFF7C1FF0024E3
:1011300028B100F0D4FB012818BF022402D12846B0
:1011400001F0C9FF204632BD0C3001F0CDBF70B5B3
:101150008AB004460D4668460FF2DC01242208F0EE
:10116000EAF905B96D46002601E0010005D135F820
:101170001610F2B2204601F0F4FF010006D105EB93
:101180004600F2B2C188204601F0F4FF010007D109
:1011900005EBC60000F10C01F2B2204602F003F8A4
:1011A000761C032EE1DB0AB070BD0C30CFE7032ABA
:1011B000BCBF0C3001F0D5BF01207047032ABCBF73
:1011C0000C3001F0D7BF01207047032ABCBF0C30A0
:1011D00001F0E9BF0120704738B500F015F828B1DB
:1011E00021462846BDE8344001F0F4BF022032BD5C
:1011F00038B500F009F828B121462846BDE834404A
:1012000001F0DEBF022032BD00F10C050C4628467D
:1012100001F06ABF38B5FFF7F7FF28B1214628462D
:10122000BDE8344001F0E3BF022032BD0C3001F0D4
:10123000F3BF084600F0B6B9FFFFFFFFFFFFFFFF57
:10124000FFFFFFFF000000000000000000000000A2
:101250000000000000000000000000000000020884
:1012600000000000024908B9486870478868704764
:10127000E4070020F8B50F46144647F6FF718C428C
:1012800001D1FF20F2BD2D4E716800291CBFB1684D
:10129000002901D0F16811B92A2102F02BF8384653
:1012A000FFF7E0FF012F01460BD10622F16831F96B
:1012B00012108C4203DA521E12B2002AF6D1501CD0
:1012C00039E0B1F90000A042B8BF044603DB1C4876
:1012D0008442B8BF0446A4F1C800282290FBF2F073
:1012E00042423078034612B25D1E9542BCBF421E98
:1012F00012B24D6805EBC2004668B0F9020010FB5F
:10130000046000284FBF002000F5FA704FF47A7691
:10131000B0FBF6F0521C12B29A4203DA35F8326092
:101320008642E6D205EBC20131F8081C814238BF83
:10133000084600B90120C0B2F2BD00BFE40700209A
:10134000C880FFFFD0B5274E0F46716800291CBF2B
:10135000B1680029144601D0F16811B92A2101F0C1
:10136000C9FF012F0BD1082CA8BF072401DA2000E8
:1013700000D0641EF068E4B230F91400D0BD200043
:1013800001D11948D0BD3846FFF76CFF022C4168E7
:1013900002DAB0F90200D0BD002F0CBFFC22F82207
:1013A000944202DBB0F90000D0BD3078401EC0B2DC
:1013B000002200E0521C824201EBC20302DA1E89C5
:1013C000A642F7D24FF47A715A68B3F9020011FBC2
:1013D00004F1891A00EBD07201EB620191FBF0F08D
:1013E00000B2D0BDE40700200CFEFFFF0840D04053
:1013F000D1404A1C10EA520F18BF60EA0100704742
:10140000DFF8841C04220968C00002FA00F00840DA
:1014100018BF0120C0B270470422C900002814BFC1
:10142000DFF8E00BDFF8640C02FA01F101607047AD
:101430003023DFF85C2C58431044426A120B41EA17
:1014400002314162704701207047DFF8480C0068A4
:10145000000E00F00F0002281CBF0328072801D14E
:101460000120704700207047704748B1DFF8282CF2
:101470006FF0FF011160000ADFF8201C0002086015
:1014800070472DE9F0430D46044690460421DFF8ED
:10149000100CDFF8107CD0F80090DFF80C0C04EA98
:1014A000000205EA0103002000218B4208BF8242AE
:1014B00083B009F10C0647D0DFF8F00B0068220377
:1014C00048BFC7E90201E20248BFC7E90401E000E2
:1014D0000BD5DFF8DC1B086800F07F40B0F1007F1F
:1014E00003D1DFF8D01B02200860E0071FD500F011
:1014F0006CF9002200F051F8012004F0DBFAF080D2
:1015000000210120FFF78AF97978002914BFDFF85C
:10151000A81BDFF8201D4FF400100860786AFFF761
:10152000A4FF00207862307840F00800307005F0A9
:10153000040300218B4207D001213046FFF7EEFB68
:1015400025F0040504430D43D6E9120104400D4083
:101550000020854208BF84420ED0B96922462B463E
:10156000484688474FF0FF30C7E90200C7E904004A
:10157000200744BF0020B8625FEAC8700BD5F96944
:101580000020F86101203870080004D0386A03B0E8
:10159000BDE8F0430847BDE8F783002301200021A0
:1015A00005F0E5BE70B508B9012070BDDFF80C2B61
:1015B000DFF80C4B51681268402303FA02F22368EB
:1015C000DFF8184D2468C4F38114521E032C01F176
:1015D000005192B29BB20BD10025EE18083E164086
:1015E0008E5D46556D1C082DF7DB0472002070BD22
:1015F000022C0AD19D1E15405B1E4D5D05801A40D0
:10160000895C45EA01210180EFE7022070BD10B539
:1016100082B009B9012016BD0B7BDFF8882A002BA8
:1016200014BFD2E90423D2E902234FF0FF34A342CE
:1016300008BFA24201D1022016BD0091283005F05A
:1016400001FC002016BD10B5044611200AF05AFA1C
:10165000042802BFDFF8180C006810F4403F01D0E6
:10166000022010BD204605F02AFF204601F01FFB96
:10167000DFF8E01C60200860002010BD2DE9F0417B
:1016800004460FF27C0084B004F10C08006802905C
:1016900008F108070026BE67C7E91066BE85FE850B
:1016A000642038867886B886F886388778870D462D
:1016B0004FF6FF7038804046FFF7C5FEC0B1404688
:1016C000FFF7C1FF060013D102A9404600F0D6FE85
:1016D0000646BA6F4FF0FF31404600F082FB00F043
:1016E00074F84FF0805204231046042105F03FFEA9
:1016F00028001CBF2046A847304604B0BDE8F08152
:101700000000000098B50446207881072ED5616A54
:1017100061B300F0FD012170606A4069006810F15A
:10172000010F03D0BDE8924002F0DDBBD4E91223E3
:1017300003F004030027BB4203D141F002002070F4
:1017400091BD4FF480312046FFF7E8FAD4E9122327
:1017500002400B4008BFBA4208D0A4F10C0001B00F
:10176000DFF840198969BDE89040084791BD2DE92F
:10177000DC430446DDE90867D4E91201904399434C
:1017800006EA020807EA030940EA080041EA0901FB
:10179000C4E9120122F0010823F0000900F08CFFD7
:1017A00080B100F012F807EA090106EA080040F0EB
:1017B000805241F004034046494605F0D8FD2046DA
:1017C000FFF7A0FF0020BDE8D68300200190009025
:1017D0007047D0E912017047704700680100DFF8D8
:1017E000C41808BFDFF8900C886170472DE9F041FC
:1017F0005FEA010886B0044615461E461AD0280046
:1018000018BF002C16D00AF059FDDFF89878B96A95
:101810008C4206D17988BF88ADF800100AF058FDD7
:101820001DE00AF055FD6A4601A9204602F0C3F901
:10183000040001D100201FE09DF80400002818BF1B
:1018400008280AD00AF03AFDBC62BDF80010798081
:10185000BDF80610B9800AF03BFDBDF80670A81966
:101860008742BDF80000B8BFBD1B83199BB2AAB266
:101870004146012002F011F806B0BDE8F081DFF822
:10188000BC1C086800F00F00704710B501F036F975
:1018900070B1F020044201D0012010BDDFF89C0C93
:1018A0000168090904F00F0242EA011101600020F9
:1018B00010BD0000002300210022032807D8DFE824
:1018C00000F00302070A0123184605F050BF7047D5
:1018D00001230121F8E7012301210122F4E7DFF8C8
:1018E000B407006800F07060B0F1807F18BFB0F1FD
:1018F000007F19D0B0F1407F18D0B0F1806F1CBFCD
:10190000B0F1A06FB0F1E06F0ED0B0F1006F17D062
:10191000B0F1106F0CD0B0F1206F1CBFB0F1306F80
:10192000B0F1406F0CD005E00220704703207047F3
:1019300005207047DFF8400C006810F0060F01D05A
:101940000420704701207047DFF8040D006800F0A4
:10195000A000401E8041C00F704770B50AF0AEFC79
:101960000446032003F07DFBDFF80C1C096811F02E
:10197000060118BF0121084302D000F051F91BE015
:10198000DFF810070568DFF8C80C066800F048F9B2
:1019900015F0404F08BF16F0A00F0DD105F0706094
:1019A000B0F1407F18BFB0F1C06F05D0B0F1106F3B
:1019B00018BFB0F1406F01D1002070BD012070BD93
:1019C0002DE9F0410446884616460027DBB20BB1EC
:1019D00000F0C2FE00F070FE18B1002001F0B9FF67
:1019E0000746B5B2BD4288BF3D4600F065FE20B156
:1019F0002A464146002001F0D1FE2846BDE8F0818C
:101A000010B5044600F011FD204601F06DFB78B1E1
:101A1000204600F01AFC58B10321002001F082FF9B
:101A200010F1010F01D1032010BDDFF8801C086008
:101A3000002010BD10B5FFF7E3FF040008BF05F05C
:101A40008EFD204610BD30B583B004461546FFF725
:101A5000D7FF010013D1D5E90001CDE900019DF8C0
:101A60000410E08F012904D10099814238BF002081
:101A700001D30099081A0090684605F015FE3EBD96
:101A800070B584B0BAB31378002B04BF5378002B21
:101A900031D070CA6B4670C312F80C3D1C000FD0D9
:101AA0009588BDF806406B431B19ADF806301478D5
:101AB0009DF801301B1B8DF8013000238DF800309C
:101AC00001239DF8014000E05B1C01259D40A542DB
:101AD000FAD392888DF800306E0804FB0262B2FBE4
:101AE000F5F2ADF804209DF800208DF801206A463B
:101AF00000F005F801E000F002F804B070BD2DE937
:101B0000FE4F83461446FFF77BFF5FEA000940F073
:101B10008580002CDFF8986B55D094F90310E0888D
:101B200003F0E9FFA178481E8DF80800012722780C
:101B30006078924619B900278DF80810BA46804699
:101B4000D04538BFD0461AB9451EAD41ED0F00E073
:101B50000025A08803F0C0FB80B2DFF8581B4FF6C9
:101B600004026DB1CB6A9BB2934208BF5B1C338009
:101B70000122CA624FF0080A8022CA64D04604E0FB
:101B8000338893421CBFCB62328038B1421E4FF67D
:101B9000FF739A4288BF1A460A6000E0086000207E
:101BA00001903B469DF808000090424651460BF1DB
:101BB000280003F01DFB25B1DFF8041C4FF4801052
:101BC0000860A06870602020DFF8B81C0860012061
:101BD00003F093FB0AF072FB044603F033FB7668D4
:101BE000AEB1042003F03DFA10B1042003F009F96E
:101BF000304603F071FB012200920B46024604209E
:101C000003F00FF900F0010090F0010903D103F097
:101C100025FB05F089FC00F003F84846BDE8FE8F7F
:101C200020460AF055BB38B500F068FF002518B112
:101C300060B203F086FF0546284632BD2DE9FC411F
:101C40008846DFF8606404461046217801F0F70109
:101C50002170DFF8701B0968716203F09BFF08B107
:101C6000012022E0DFF8040C006800B10120DFF859
:101C7000487470704FF400153D601FFA88F12046DB
:101C800001F00DFB58B17078002812BF3D60DFF8FD
:101C9000A4050560706AFFF7E8FB022005E00190EB
:101CA00000900122FFF779FC0020BDE8F681B0F931
:101CB000060070470078C00801F08FB92DE9F047A1
:101CC0008246164688B0BAF8381032683379501A0E
:101CD000012B11D18A420DD303F0FEFA37798046E9
:101CE000894607B10127307B02280CD10020002152
:101CF00002220EE00020EFE7022BEDD14FF00008AA
:101D0000C1460227EFE7B06803F0E6FA327B02B182
:101D10000122B37B03B10123757B06936C1EA441A2
:101D2000CDE90201E40F05940492009742464B4628
:101D3000504605F032FC08B0BDE8F08780B50020C1
:101D400005F0FFFC002002BD012809D00BD30328B9
:101D500003D008D24FF0C05006E04FF0005003E02F
:101D60004FF0605000E00020DFF8F01B0A6822F01E
:101D70006052104308604FF40010CF49DFF8E02BA9
:101D80000860DFF8E00B016821F0060141F0040172
:101D900001604FF0805111600421416100207047C3
:101DA000DFF8C41B062008600020DFF8C01B0860B5
:101DB0004FF08050DFF8B81B08604FF40011DFF8D7
:101DC000740401604FF060510160002070470028EA
:101DD00019BF0220DFF89C1B0220DFF89C1B086063
:101DE000704738B500F07CFA00284ED02207DFF8A3
:101DF000880BDFF8801B05D52A0747BF08220A6039
:101E000008220260E20705D5EA0747BF0120086003
:101E100001210160600708D569074CBFDFF85C1B32
:101E2000DFF85C1B4FF400700860A00704D5680859
:101E300000F00100FFF7CBFFE00606D5DFF8440B0A
:101E4000E9064CBF00211B21016014F0600F1CD07B
:101E500004EA0502002102F06002202ADFF8280BC4
:101E600011D0402A0CD0602A0ED1DFF88C2C1368D8
:101E700053B11C68022C07D35A6942F0010103E0F8
:101E800040F2011100E001210160002032BD38B5AF
:101E900000F026FA18B1E9B2E0B202F0C6FD002067
:101EA00032BD2DE9FC4700260D0018BF012502298F
:101EB00080461446994603D100F032F8002027E00E
:101EC0000AF0FCF9774F8246F869010018BFA0427A
:101ED00015D10120FC6101900090C7F820900022EC
:101EE00000230020FFF75BFB3E70404603F0F4F94F
:101EF00002460B460095022002F093FF064650462C
:101F00000AF0E6F9002E03BF0020F861012000204E
:101F1000BDE8F687DFF8100DD0E9000103F0C8B97D
:101F200000B583B000200190002201200090002322
:101F30000020FFF734FB022002F063FF5949002024
:101F4000C86107BDDFF8640C564900680978800A4B
:101F500000F0010008437047022003F082B880B50A
:101F6000FFF771FA18B1BDE8014003F066BD02BD8C
:101F700080B5FFF768FA18B1BDE8014003F076BDFF
:101F800002BDFEB50FF21804E0CC6B46E0C38DF83D
:101F9000080000920191684604F087F8FEBD000039
:101FA00000000000000000000001000004F0FDB887
:101FB00070B5406A0025002816461EBF40690028FB
:101FC00005460C46F00748BF04F084FDF00317D522
:101FD000266816F1010F0ED1DFF81C0B01680029ED
:101FE0001FBF0A68002AC86801F0A0FE01F019FFAF
:101FF0000646266002E0304601F075FF05B12E600E
:1020000070BD0000EC10084638B500F06FFA10B152
:10201000284601F068FF606A00281CBF406900285C
:1020200002D0606A40690560002032BD70B5054687
:10203000DFF8C40A0C46016800291FBF0A68002A9D
:10204000C86801F073FE01F0ECFE064601F04BFF9C
:10205000686A00281EBF40690028066004B1266037
:10206000002070BD80B504F035FD002002BD02F0F7
:1020700014BD38B5DFF8504C0B7822684978C2EAB5
:10208000034242EA016528E0EC100840EC100844E5
:1020900000100840044008401870084418700846B2
:1020A0001001002028010020010018101C510840D8
:1020B000081F0021004008461860084630100840FC
:1020C000FC1E002138B5DFF8004C22680B784978F7
:1020D000120C43EA024242EA0125FFF7B4F900B1CB
:1020E0002560002032BD03F020BE70B500F0FEF97F
:1020F000002628B104F12801284602F0FFF906461F
:10210000304670BD70B504460D4694F86000032853
:1021100001D1022070BD261D316A357081B1204683
:10212000FEF7C8FB40B930622046FEF7B5FC014619
:102130002046FEF7DBFB03E0E9B2204600F002F8A0
:10214000002070BD10B50C4690F86010032901D135
:10215000022010BDFFF777F910B1E0B202F076FA75
:10216000002010BD80B5084602F01BFA002002BD19
:1021700002F01FBA80B503F0E9FEBDE8014003F0AC
:1021800077BE80B503F054FEBDE8014003F099BE70
:1021900080B503F04DFEBDE8014003F0B4BE2DE96B
:1021A000F04104460F466069012815461E463DD0A1
:1021B00000F082FA002839D0FFF791FB012803D004
:1021C00001210120FEF72AFBA889D5F804803F1AD7
:1021D000BFB2402F06D3A968B809484308EB80185E
:1021E00007F03F0704F0B4FA404507D104F0B3FA12
:1021F000A968884204BFF6B2002E10D0A9684046F4
:1022000004F0DBFA08B1022011E004F0BBFA002868
:1022100014BFDFF8E40BDFF8140D04F0CBFB20460D
:10222000FFF770FA0121F8B204F032FB0020BDE89C
:10223000F081000018600844C9B280B5002914BFBD
:1022400020220022202100F029BD202105F0B4BE6B
:1022500058B5064688B203F03FF804463046FFF70B
:10226000F2F818B1DFF8080D61420160002052BD9C
:1022700004300E40F8B5074600F032F8032618B3D4
:102280000AF01CF80746DFF8FC15022008609648A3
:102290000068000E00F00F00082818BF072803D0C0
:1022A000092818BF0C2804D1DFF8A40300688003B4
:1022B00004D4E9B2204601F066FB064600F044F87B
:1022C00038460AF005F806E0EAB2214607F1900028
:1022D00007F0AAF800263046F2BD00008C40084006
:1022E0000C461546FFF7AFB8C9B2002914BF082243
:1022F0000022082105F045BEC9B2002914BF4FF4E1
:10230000807200224FF4807105F03BBE082105F079
:1023100053BE4FF4807105F04FBE38B5054609F045
:10232000CDFF0446FFF791F860B100F041FC48B1E1
:1023300000F02CF85DBF402181600025022500F0EF
:1023400003F800E002251DE0DFF8D41C022008603D
:10235000704700004400084038B5054609F0AEFF5C
:102360000446FFF772F860B100F022FC48B100F0BB
:102370000DF85DBF2021816000250225FFF7E4FFF5
:1023800000E00225FFF74CFC284632BDDFF8F404DC
:1023900002210160AE4909688903704700280CBF1B
:1023A000DFF8E004DFF8780C4FF4807101607047CB
:1023B00070B5DFF80C4CDFF80C1C2578DFF8642CC6
:1023C000ED074FF4806303D505000CBF13600B606D
:1023D0002678B6074FF4006503D506000CBF1560DC
:1023E0000D602678760703D506000CBF53604B605E
:1023F00023781B0703D508B9556070BD4D6070BDCB
:10240000002814BFDFF87405DFF874054FF480610D
:102410000160704780B5FFF716F828B1DFF8080CA7
:102420000068000900F0010002BD38B504460D4601
:10243000680800F00100FFF7BBFF05F00400FFF79C
:10244000DFFF002005F01802182ADFF8E01B07D094
:102450002A0748BF012003D4EA0648BF40F2011012
:1024600008602046FFF7F1FE20B105F00100BDE84D
:10247000324093E731BD000069140000F8B500F068
:1024800035F870B3A878E978884201D00120F2BD10
:102490006878010002D1FFF783FC01E0FFF754FCEC
:1024A000A878DFF88C6B40F6FF7700280EBF376006
:1024B000204600F051F9E87840B9DFF8B8143763E6
:1024C000602008604020DFF8581B09E0DFF8A814FE
:1024D00060200860204600F055F94020DFF81C1904
:1024E00008600020F2BD00000440084004460D468C
:1024F000FEF7A9BF30B585B0FFF7F2FEC8B10022E4
:102500006946012001F057FBA8B1BDF80210AAB23C
:102510008A4228BF0D46DFF81C1B8A6A904204BF1E
:1025200000208862ADB22A462146012001F08FF9D1
:1025300000E00025284605B030BD00005C1F0021EA
:1025400038B50C466A4601F036FB050018BF002C72
:1025500010D02078010018BF08280BD009F0AEFE7B
:10256000DFF8D01A8D62BDF800204A8062888A8028
:1025700009F0AEFE284632BD0C50084010B50C469E
:10258000002818BF002C84B006D0032806D20022F1
:10259000002101F010FB08B9012056E0006800900E
:1025A000BDF800209DF80210120401F0070002D4CB
:1025B000821F022A01D3022047E007280CBF012016
:1025C00000202073080900F001006073C1F380103F
:1025D0002074C1F3C0006074C1F34010A07403F014
:1025E0006CF90246C0B240B3207A00B90222BDF8AD
:1025F0000000831F9BB2D2B201A9012001F04DF966
:1026000001A841784900E1739DF90410A173217A72
:10261000D1B18178C2780079009441EA022141EA7F
:1026200000409DF8091040EA0162DFF80C0A0068DA
:102630000023343004F0C8FB06E0E0736FF07F0045
:10264000A073002020602072002004B010BD0000A4
:102650008840084001F000BADFF8D8198A6A904231
:1026600001D0032801D200228A6205F011BCF8B51E
:10267000FFF73CFF402640B1DFF8C009006800F0DA
:1026800007000121801D01FA00F6B7B2A8B2874207
:1026900088BF074600F010F820B1791E89B20020EB
:1026A000FEF7C6FEA4F86C703846F2BD001F00218C
:1026B000680100202C5008402046FEF7C4BE38B503
:1026C0008DB2B5F5007F044628BF4FF40075FEF7C4
:1026D000BAFE18B129460120FEF7AAFEA4F86E50F2
:1026E000284632BDB0F86C007047B0F86E007047F5
:1026F000002001F02EB9012001F03CB9F8B50C46DC
:102700009BB200F023F806DAB3FA83F1D1F1190194
:1027100048BF002507D400F019F8BABFB3FA83F117
:10272000C1F1190506250121AB1D01FA03F6B7B267
:1027300091B28F4288BF0F46FEF785FE20B1EAB204
:102740003946204601F011F8B0B2F2BDB3FA83F178
:10275000C1F119010629704780B5FEF774FE80B1FA
:102760000020FEF74DFEDFF8D828012111604FF45C
:102770000051DFF8D028116018B1BDE804400021F5
:1027800022E001BD10B5FEF75EFEB8B10120FEF7F4
:1027900037FE044601210020FEF73EFEDFF89418C4
:1027A0000020886205F08CFBDFF89C184FF4005085
:1027B00008601CB1BDE81040012105E010BD00001B
:1027C0004C500846187008400120FEF725BE70B531
:1027D0000D460446DFF8E817DFF8700848602E461B
:1027E000FFF76AFF08B925813DE0DFF86408DFF8EC
:1027F00064184FF6FF72ABB283B92389934204D1B8
:102800000968C1F30B01A4F8701000212181072190
:1028100001600520DFF84018086024E0ADB2954261
:1028200023890ED193421ED0072303600868B4F8B1
:102830007030000B43EA003008602281B4F8706009
:1028400011E0934204D10A68C2F30B02A4F870208D
:1028500025810722B5F5805F026088BF4FF480555F
:10286000681E08602E46B0B270BD000054030C43D1
:10287000002819BF082003490820DFF8A4170860C2
:102880007047000088400846F8B5FEF7DCFD0024DC
:10289000002510B94FF0FF30F2BDDFF8C007006827
:1028A000002247F6FF71FEF7A1FD0646DFF8B007EC
:1028B000C16F11F4E05F08D04068DFF8A81700226C
:1028C000FEF794FD0446C51716E08B490F689FB1CB
:1028D0000068002241F6FF71FEF788FD796881FBF0
:1028E000000110F5004041F100014FF48032002357
:1028F00005F0FAFE04460D46A01945EBE6710023EB
:10290000994243F6FF720BDC01DB904208D24FF094
:10291000FF339942DFF8502703DC01DB904200D2FD
:10292000104600B2F2BD10B50CB214F1010F01D186
:10293000012010BDFEF787FD70B143F6FF708442A1
:1029400006DA14F5804FB4BF4FF48040C4F30E0094
:10295000DFF808170860002010BD0000186008406C
:102960009440084670000840700008448400084005
:102970009440084444000846440008441C6008464B
:102980001C6008444C0008406C1F0021F8B50D463F
:102990000446A968164621B9206A626A006814686C
:1029A00001E0084600246A6812F1010F01D0DBB291
:1029B0000BB100226A600029E968009114BF01236D
:1029C00000233246291D02F0A2FE07000CD1A868A0
:1029D0000028E868009014BF012300233246291D17
:1029E000204602F094FE00E0002050EA070101D1E9
:1029F0000020F2BD042F18BF042801D10420F2BD2D
:102A00000220F2BD2DE9F84F054600F077F80026C8
:102A100000286FD0DFF8E0B0DFF85076DBF80080F8
:102A2000D7F80090D7F804A0214605F1280002F05D
:102A3000D9FEDBF8004038687968DFF8842548451E
:102A40000ED01378870A03F0FE0307F001073B431B
:102A5000C00A03F0FD0300F0010043EA40001070DB
:102A600051450FD010788B0A00F0FB0003F00103F2
:102A700040EA8300C90A00F0F70001F0010140EAD2
:102A8000C10010704FF6FF712889884205D0526846
:102A9000100002D0298928469047444525D00021BE
:102AA000002C1EBF20680028A168284600F042F8CC
:102AB000002C1CBF2068002801D0206918B9002212
:102AC0000021002402E082680168C48905F1280021
:102AD00004F051F906000DD1214605F1280004F05B
:102AE000B2F805F1280004F040F9287840F002001F
:102AF00028703046BDE8F28FF81F00210C46FEF723
:102B0000A2BC30B504460FF2B4500FC885B06D4674
:102B100085E80F008DF800408DF80140684604F00C
:102B2000E0FE05B030BD80B5002103F046FE00B1E7
:102B3000022002BD70B50E0082B00546DFF83045B8
:102B40000AD10022072105F01CFA00F031F858B331
:102B50000020C4E9000073BDFEF775FCF8B1DFF892
:102B6000F0140720086001213079207070790090FE
:102B7000684605F0EDFA0099C14000F00F0040EA08
:102B800001106070B079A070F079E0703168DFF802
:102B9000E40401603079DFF8BC14401C08600722AF
:102BA0000721284605F0EDF973BD00005C50084090
:102BB0002846FEF748BC10B5FFF7A0FF20B1E0B2F1
:102BC000BDE8104002F076BFDFF8AC0410BD10B5D0
:102BD0000C46FEF784FE012801D0022010BD05211D
:102BE000112008F0F3FF00220021022009F0AEFAC4
:102BF000DFF88814DFF88804086000EAC420DFF8F2
:102C00008414086001220121022009F09FFA0421A6
:102C1000112008F0DBFF002010BDDFF86C04006815
:102C2000C0F3C82070470000780A002080B502F089
:102C30008CFABDE8044002F03BBB80B502F055FAC7
:102C400008B1002002BD022002BD70B505460C4649
:102C500000F02DF8CCB1A078092801D3012070BD77
:102C6000E1780929FAD200F00F0040EA0116FFF7D7
:102C70009FFF50B1DFF8140461680160DFF81004B1
:102C80002178017061784170C670002070BDC9B2B2
:102C900080B5002914BF10220022102105F071F91F
:102CA00000B10120C0B202BD102105F085B980B588
:102CB000FEF7C9FB30B1BDE804404821DFF8CC0382
:102CC00006F0E5BC01BD0000081F002170B584B00E
:102CD0000446CDB2DFF8BC03029369081646405C97
:102CE000A900C84000F00F000190F3B2002000904E
:102CF0002A462946204605F07DF9089949B1010088
:102D000007D1F3B22A46204604B0BDE87040012145
:102D100001E004B070BDF8B5D2B2022A3CBFDBB20C
:102D2000042B01D30120F2BD5408DB4D01272E5D99
:102D300003EB8202C9B207FA02F2002914BF16435C
:102D40009643FEF780FB00B12E550020F2BD04F043
:102D500009B938B5044604F1280004F00CF8050060
:102D600006D1FFF7A9FC18B104F1280003F0FDFF1C
:102D7000284632BD38B50D460446298804F138008E
:102D800003F032FF288004F14000698803F02CFF33
:102D9000688004F13E00A98803F026FFA88004F1B2
:102DA0003C00E98803F020FFE88004F1280029892D
:102DB00003F041FF288104F12800698903F043FFF3
:102DC0006881FFF779FC18B104F1280003F0CDFF0A
:102DD000002032BD02F006BB02F071BB02F04DBB19
:102DE00002F0A8BBAD490A685830C28189690278EF
:102DF000490B01F00101E8E0C0CF6A0088400846B5
:102E0000F0B5044604F1580583B00E46A448296A7B
:102E100001605748E96A0160A248696A016020467A
:102E20006188FDF763FDAA6A4FF0FF312046FEF787
:102E3000D8FFFEF7CAFCD4E9120140F0805241F0FD
:102E400004036FF001004FF0FF3104F090FA95F9A0
:102E500004102046FEF7E7FE04F174012046FFF758
:102E60000DFBEA78A9782046FFF711F8697820462B
:102E7000FEF70BFD04F160012046FFF736F9A97952
:102E80002046FFF75FF9B5F91A102046FFF74BFD12
:102E90002878400800F00101204600F0A1F82078D1
:102EA00000F0010002F029FB784804F1D00148222B
:102EB00006F0BAFA2A6B100002D03146204690473D
:102EC000A069794ED8B12A78A98AB5F812C02B8AA0
:102ED0005A4F920802F0010241EA4231EA89BCFAF3
:102EE0008CFCCCF1190CC7F800C07860BB60FA60AC
:102EF00079620C20706593421CBF0220B862A98AD7
:102F00002046FFF7B4FBE98A2046FFF7D8FB0120F3
:102F1000706204F190003060687970606879002810
:102F200014BF062004207062F7BD0000E067350082
:102F300080B55E48016919B9011D0161406880478B
:102F4000002002BD10B504465848017831B100692F
:102F500008B9032010BD8068804706E002F0F5F84C
:102F6000201802F0C2F801F0FBFE002010BD0000A6
:102F7000041F0021F8B506460F46144609F09EF9D5
:102F80000546FEF7ACFC012805D148483100067023
:102F90000BD0016921B9284609F09AF90320F2BD46
:102FA000496838468847064602E001F0E4FE0126FB
:102FB00004B12670284609F08BF90020F2BD00000C
:102FC000F4070020A0000844027802F0FB0242EA65
:102FD0008101017070470078800800F0010070479F
:102FE00010B5FFF78BFD10B1E0B202F0D2FC00206B
:102FF00010BD10B5FEF727FA002410B102F0D3FC83
:103000000446204610BD2A4918B10120086029490C
:1030100002E0294A0120106008600020704700008B
:1030200088400844A00008468C400840701F0021DA
:103030002410084028010020100100200010084042
:10304000281008402410084454100844CF270000DA
:1030500004000844180008400400084640300840B6
:1030600008600840FFFF070000C0FFFFA000084005
:10307000541F0021581F002100FEFFFF30400E4466
:1030800000F80F0030400E4630400E400C1F00216B
:10309000501F0021531F0021521F00210C10084017
:1030A000081F0021F81E0021941008405401002040
:1030B0001C40084020400846204008440000000012
:1030C000000E020B0E02090E020A000001207047DA
:1030D00080B5802201E080B50022802104F051FFFC
:1030E00000B10120C0B202BD802104F065BF80B5EF
:1030F0000FF29411FDF702FB002002BD10B504464B
:103100000FF27C10008886B00023ADF80C0000227E
:1031100003A802900021022001900020009000F0FE
:103120001DF8010009D103A802900023042001909A
:1031300000220220009000F010F801000BD104A83A
:103140000021C0E9001102900091082001900023A5
:10315000012200F002F806B010BD0121204604F063
:1031600049BF00B585B000F012F80221019100219D
:10317000009108E000B585B000F009F80421019144
:1031800002210091012104F035FF05B000BD531C60
:103190008DF80C10DBB20904090E8DF80D10002219
:1031A00003A902917047E0B50291531C08210191D7
:1031B000DBB2002100910122012104F01BFF0EBDB2
:1031C00080B5C9B2002914BF4FF4803200224FF4F9
:1031D000803108E080B5C9B2002914BF4FF0807279
:1031E00000224FF0807104F0CCFE002002BD80B5BB
:1031F0000906CA094FF4F011F5E71206C9B2120A1E
:1032000042EA01611B06DA0902F4F01280B51143AB
:1032100041F0B0020F49E6E710B5FFF757FF02246F
:10322000A8B10D480068000E00F00F0002281CBF76
:10323000032807280BD10948094904600968890354
:1032400002D4102181600024064902200860204633
:1032500010BD0000B8011F01044008408840084626
:10326000884008408840084480B50FF2180109786A
:103270008DF8001001226946FEF7FCFF02BD000038
:10328000FFFF000005000000389307000C950700C1
:10329000E4910700010000000C30FEF7A2BD38B534
:1032A0000D46044689B2FDF721FB010005D1A9B204
:1032B0002046BDE83440FEF741BD32BD70B504463E
:1032C0000D461646FEF70BFB012801D0022070BD0B
:1032D000A9B22046FDF70AFB010006D13246A9B289
:1032E0002046BDE87040FEF7E9BC70BD0C30FFF72A
:1032F00021BC0000014A11605060FEE7700100200F
:1033000028B90348016003480068FFF7F3BF70471E
:103310007001002010010020C9B2FFF74CBC0C3036
:10332000FEF7C5BC80B50C30FEF7C1FC00B1012032
:10333000C0B202BDDFF89013496800E0096919B115
:103340008142FBD1012070470020704738B5044608
:103350000D46FFF7EFFF08B1002032BDDFF868032C
:10336000416805B911B9446005E011460A69002AAF
:10337000FBD10C61002121618168491C8160012021
:1033800032BD10B500281EBFDFF83C134A68002A82
:1033900010D08B685B1E824203D11069486006E042
:1033A0002246146934B18442FAD1006910618B60FD
:1033B000012010BD002010BD38B5040001D101204E
:1033C00032BD182106F063F908F072FF05460021AE
:1033D0002046FFF7BBFF0028284603D108F074FF02
:1033E000022032BD13E038B5044608F061FF00F05A
:1033F00012F810B1204600F0F5F82046FFF7C1FFA3
:103400000028284603D108F05FFF012032BD08F0F4
:103410005BFF002032BD05462046FDE08AE72DE92E
:10342000F84F04460D4691469A46FFF783FF08F091
:103430003FFF804604F0AEFE8346FFF7EDFF20B16C
:10344000204600F0CFF80020A075B9F1010F0A9EC8
:103450000C9F09D15AEA050005D1D6B13A46594622
:103460002046B04715E05D442946584600F0A9F8CB
:1034700018B100F0FFF801200EE001206075256012
:10348000C4F804A0A6600B982075E760584600F0C9
:1034900005F800F0EFF80020BDE8F28F2DE9F047C5
:1034A000804608F005FF884E8146307810B1012033
:1034B000707077E0012030700020707004F07CFEA6
:1034C00008B104F077FE776801E0B8753F69A7B1ED
:1034D000787D0028FAD03968404600F072F800285C
:1034E000F4D0786839684118396000B101207875E6
:1034F000B8680028E9D00120E7E74FF0000A0AE0A9
:103500000020A8750AF1010A28686968EA68AB68B2
:10351000411A28469847B068746882450FD2002542
:10352000FF20274607E0B97D21B1397D884224BFBD
:103530003D4608463F69002FF5D1002DE0D14FF000
:10354000FF37002504E0874224BF0746254624694B
:103550006CB1607D0028FAD02168404600F031F857
:10356000002812BF00202068A0EB0800EBE73DB167
:103570002846FFF706FF18B101212846FFF7E6FEAF
:103580007068417D21B1006804F006FE074600E046
:10359000002704F0FFFD8046002F04BF707800284C
:1035A0008AD130704846BDE8F04708F08DBE8842A9
:1035B00001D100207047081A444988428041C00F59
:1035C000704780B5FFF7F3FF2FE010B508F070FEED
:1035D000044604F0DFFDFFF761FF2046BDE8104020
:1035E00008F072BE38B50446FFF7A4FE08F060FE8E
:1035F000FFF711FF20B9284608F066FE032032BD10
:103600000020607530484068A04203D104F0C2FD3C
:10361000FFF744FF2846FAE610B50446FFF78AFE96
:10362000607D10BD80B5FFF7F7FF00F0010080F06E
:10363000010002BD2DE9F04104460D46FFF77AFE78
:1036400008F036FE2768804604F0A4FD0646607D3B
:1036500058B139463046FFF7AAFF30B100F00AF8FA
:10366000012D14BF3846B81B02E000F003F800201B
:10367000BDE8F081404608F027BE2DE9F04105463F
:103680000C4608F015FE104F8046786800281CBFD5
:10369000407D002812D004F07DFD0646786805B113
:1036A000286001683046FFF782FF38B1FFF7E2FF7C
:1036B00078680068012C04D1801B02E0FFF7DAFF74
:1036C0000020BDE8F0810000FC070020FDFFFFBFE7
:1036D00010B5044604F05EFD241804F05BFD21469D
:1036E000FFF76FFF08B1012010BD04F053FD214624
:1036F000FFF75DFF0028F8D110BD000030B5302580
:10370000DFF8EC45684320440160426003991943A7
:10371000416230BD38B5DFF8DC55686000200090AC
:103720000C4640F6FF7305F10C0203210120FFF760
:10373000E5FF0320288000230020688022464FF404
:103740000050009000210320FFF7D8FFDFF8A815F4
:10375000F0200860A020DFF8A41508600120DFF841
:10376000A0150860BDE8314027E138B5DFF8804595
:10377000226060600D4608F0A1FDDFF888150A6838
:103780000023E360A56052075CBF04228A6008F052
:103790009FFD0DB10220A06231BD00002DE9F04F68
:1037A00089461646DFF8481500EB4002052E81B029
:1037B00001EB021515D2761E032E45D8DFE806F080
:1037C0000B08050219F8010BA86119F8010BA86193
:1037D00019F8010BA86119F8010BA86101B0BDE847
:1037E000F08F19F8010BA861361F19F8010BA861B9
:1037F00019F8010BA86119F8010BA86101202968CB
:10380000AC6801F00701891D00FA01FAAAF101086C
:10381000696808EA0400AAEB000741F0005BB742C0
:10382000584408D23A46494605F0FEFDF21B09EB22
:103830000701584601E03246494605F0F5FD3019CA
:103840004AEA08010840A86001B0BDE8F08FF8B569
:1038500004460D461646204600F08CF8070014D0AA
:10386000B74228BF3746012000903021DFF880049E
:1038700061430844BAB2C3689BB22946E0B200F083
:1038800016F8BFB2F61BE6D1F1BD2EB10220E10061
:103890008840DFF874140860F1BD10B582B014469A
:1038A00000220092224600F002F8204616BD2DE9C3
:1038B000F047894630214843DFF8341482B00E18AF
:1038C00008587168144600F007000122801D02FAB2
:1038D00000FA41F000511D46AAF10108009108EAE2
:1038E0000500AAEB00070099A742014408D23A4616
:1038F000484605F099FD0099E21B09EB070001E03D
:103900002246484605F090FD0A9848B160194AEAF7
:1039100008010840F060B16888421CBF0220B06214
:10392000BDE8F3873023DFF8C82358431044026A08
:10393000C2F30802914202D34FF0FF307047426851
:10394000C0684FF0005308181A44C0F30800105C18
:10395000704730214843DFF898130A58084402F0B2
:103960000702006A0121921D9140C0F30C00081A61
:1039700080B270473022DFF8781350430844006A61
:10398000C0F30C007047F8B50D46412D044601D335
:103990000120F2BDDFF868630120306008F08EFC82
:1039A00007462A4621460320FFF7F8FE384608F06E
:1039B0008FFC042030600020F2BD38B508F07EFC9A
:1039C0000446D248CB4D01210160016300200090E4
:1039D00003234FF403702A1800210220FFF78EFE04
:1039E00003202880002068804FF4A020C849086088
:1039F000C84908600020A8602046BDE8324008F0B1
:103A000067BC38B504460120FFF7B4FF0546A54260
:103A100007D9254605E0012269460120FFF717FF77
:103A20006D1EA8B20028F6D131BDB6480168C903A1
:103A300011D54FF480318160B6480160B648016805
:103A400001F0FF0101640168C1F307210164042151
:103A50000164002101647047A648816809B900200B
:103A6000704741F001018160480840007047F8B597
:103A700004004ED008F022FC05469E484188C1F360
:103A8000830200EB82024FF403731A448368022C12
:103A90001E4603D1D3B37408640002E0012C08BFB2
:103AA000144676084FF40373B4EB460F034423D156
:103AB000002181609442218841F4004121803BD162
:103AC00002882146121F4FF413770280241D0744F9
:103AD000468892B2361DBC4228BF1C46052A468045
:103AE00002D327883F04EBD48B7803F00703042B21
:103AF0000CBF012300230EE0E61A01F03F01711A0A
:103B0000068848BF4031361FB142D3DB284608F053
:103B1000DFFB0320F2BD0988804CC1F30C0121605A
:103B200006F07F0141802163A2642BB1406801004F
:103B300018BF804702F0FCF8FFF777FF284608F02F
:103B4000C7FB0020F2BD6B4908884A888218D21E44
:103B5000920802F00F0201EB82024FF40373001D82
:103B60001A44088080B26E4B1860907800F007000D
:103B7000042803D16B4B1B681B03FBD48A6070477E
:103B800010B55C4CA06828B1C10758BFFFF76FFFA4
:103B90000020A06010BD80B563494FF480300860FC
:103BA000594908600220FFF7E5FE3D2802D2BDE832
:103BB00001403AE701BD2DE9F84F04460D4616468F
:103BC00008F07CFBDFF82C818146B8F80200C0F3D6
:103BD000830108EB81014FF403721144B8F800200F
:103BE000022C10D1D8F8083053B91318DB1E9B08EB
:103BF00003F00F0308EB83034FF403741C4405E048
:103C00005C08640002E0012C08BF0C464FF403730B
:103C10004344E71A00F03F00B7EB000A48BF0AF13F
:103C2000400A92451EDA002D08BF002E59D08C4262
:103C3000DFF8E4B003D1DBF80470BFB206E0201F68
:103C4000984238BF40300088C0F30C0706B1378077
:103C5000002D46D00220FFF78DFE82451ADA20881B
:103C6000010404D5484608F033FB00203DE0A1786C
:103C700001F00701C01B06292970C0F3090602DB09
:103C800001F01BFE361A30B2C043C00F0421FFF70B
:103C900037FB11E0DBF80000C01BC0F30906214828
:103CA0000068012E04DA000E00F00F00032801D195
:103CB000082000E000202870C7F3080708EB070081
:103CC0000C30A8606E8017FA86F0B0F5007F05D939
:103CD000C7F50070A88008F10C0001E0AE8000205C
:103CE000E860484608F0F4FA2046BDE8F28F00008C
:103CF0000010084008080020400008444000084622
:103D0000B8100840E0100840E4100840581008407F
:103D1000E8100840EC100846381008403C100840F5
:103D20008410084004400840EC10084480B5002886
:103D300045D00178122942D3DFF8181742780A706B
:103D400082784A70C2788A700279CA7042790A71A0
:103D5000827902B101224A71C27902B101228A71CB
:103D6000027A02B10122CA71427A0A720278182AD2
:103D70000FDB827C02B101224A72C27C8A72027D10
:103D8000CA72437D827D43EA02228A81C37D027E1C
:103D90000EE0827A02B101224A72C27A8A72027BF2
:103DA000CA72437B827B43EA02228A81C37B027C04
:103DB00043EA0222CA81407C0874002002BD002030
:103DC00000F091F8012002BD00210328DFF88426CD
:103DD0000FD8DFE800F002101509107A01280AD088
:103DE00002280DD0032804D1D07910B1032010751A
:103DF00001210846704750790028FAD00120F6E7E3
:103E000090790028F5D00220F1E7DFF84816087510
:103E1000704710B5DFF83C46207DFFF7D5FF207DC9
:103E200010BD80B5FFF7F5FFFF2800D162E3DFF892
:103E30002416CA898B8900928A7A022100F001F83F
:103E400002BD2DE9F84FDFF8107606468A4638683D
:103E500091469846002101F02BFA0446701E0D464B
:103E60004FF0FF3B03D0401E012806D917E000F0B9
:103E7000E4FA0646FFF7A1FD12E0304600F03DF8F7
:103E800010F1010F08BF5E4606D00A9B4246494624
:103E9000504600F0C2F9064600F089FA00E05E469E
:103EA0003868002101F004FA001BA9414FF47A722E
:103EB000002304F0A1FB002399424FF6FF7201D8C2
:103EC000904201D3002403E04FF6FE7200EA0204A0
:103ED00016F1010F04D0304600F005F846EA04461A
:103EE0003046BDE8F28F10F1010F05D0DFF86C15F8
:103EF0000A68C0EA02000860704738B5044600F05E
:103F00002BF8022CDFF84C2502D1D178022003E0F7
:103F1000032C1ED1117903205378127804F04EF946
:103F2000054615F1010F14D000F09EF8284600F068
:103F300068F810F1010F0CD000F07FF8022C03D1CB
:103F400000F0B8F8002032BD032C02D100F0C9F80F
:103F5000F8E74FF0FF3032BD70B5DFF80405DFF849
:103F600004458169DFF80055DFF8006521600168CC
:103F700061602968A1606969E160696B2161A96B71
:103F80006161696EA161B16EE16131682162DFF842
:103F9000E01409686162016AA162416AE162816AB2
:103FA0002163C16A6163806DA063DFF8C8040068A3
:103FB000E063DFF8C4040068206468686064F06E41
:103FC000A06402F0C5FBE06402F0C5FB20650020A0
:103FD000F0662020DFF8A41408600120DFF8A014A8
:103FE00008604020DFF89C140860DFF868146868F7
:103FF000097C090220F4706001F470610843686074
:1040000070BD10B5044602F0A9FBDFF87C14096806
:10401000C9024CBFA4EB400404EB4004204602F06C
:10402000B9FB10B9FFF75FFF04E00021204602F062
:10403000C4FB08B14FF0FF3010BD10B5DFF84C14D1
:10404000DFF84C444FF40010086000F02DF8FFF743
:10405000B4FCDFF84014082008602068000E00F06F
:104060000F000228F9D110BD10B5DFF82C14DFF8CD
:104070002044FF20086008F021F92168090E01F0B2
:104080000F01032907D1DFF814140A6822F0F002A7
:1040900042F0E0020A600121DFF80424116008F018
:1040A00017F900F001F810BD2068000E10F00F00A5
:1040B000FAD17047DFF8EC03DFF8EC230168114018
:1040C00041F0804141F4184101604FF48000DFF875
:1040D000DC1308604FF40021DFF8D4038161016034
:1040E0007047F8B5DFF8BC03DFF8C823016ADFF8D2
:1040F000C843DFF8C853DFF8C873DFF8C863890B1B
:10410000890341F4605141F03E010162416A090DA9
:10411000090541F4145141F0BC014162016D01F007
:104120007F4111430165DFF8A023016889098901F6
:1041300041F0A70101604FF48000DC4908600021D4
:10414000CA488166016821F4E07141F48071016020
:10415000C7480168C908C90041F0050101604FF472
:104160000021DA480160216821F0004141F08041DE
:1041700021604FF44041C160E960A168114040F204
:1041800045421143A160D24AE16821F0370141F074
:104190002001E160E168114041F4002141F48A41CD
:1041A000E1604FF4F87101640820A8604FF480309A
:1041B00000F028F8206820F47F5040F04000206094
:1041C0004FF4003000F01EF800F020F84FF480208B
:1041D00000F018F8BF4909200860142001F08DF89C
:1041E00000F014F8A3489B4A01689278C1F31601C5
:1041F00041EA026141F4000101601420BDE8F2408F
:1042000001F07BB82860142001F077B820683840AE
:1042100030432060142001F070B8F8B502280C4635
:1042200015461E4616D100962B4622460121002037
:1042300000F013F800962B462246002100F00DF8FE
:10424000074600962B462246012100F006F847EA71
:104250000020F2BD4FF0FF30F2BD2DE9F24F82B0E9
:10426000054647F6FF7800200C9C8DF80400914627
:104270009B46464682460527384600F032F800F055
:1042800036F812BF29460146284600F037F8B042FA
:10429000BCBF06468DF804700A37802FECDB9DF812
:1042A0000400461F06E000F029F84045BCBF8046E8
:1042B000B246761C9DF80410F6B23046491D814284
:1042C0000CDB80280ADA0028F3D000F00AF800F0AE
:1042D0000EF812BF294601462846E4E75046BDE8DD
:1042E000FE4F4028B8BFC0F14000C0B270479DF8F3
:1042F0000810009400295B464A4670472DE9F84FA4
:1043000000278028A8BF7F2080291546A8BF7F21CD
:104310000F2D4FF00008A8BF4FF0FF3045DA4F4A8D
:104320006D4E1468DFF8B491DFF828A1344044EAF8
:10433000002008431060C346184600F0DEFF0A9CC8
:10434000674E0EE02020C9F80000B0609AF80B001C
:10435000834504D3012001F0ADFB80447F1C0BF1A9
:10436000010B0120A84083451AD2204600F0C5FF6A
:104370009AF809000028E9D12021F068C9F8001056
:10438000B1604009012100F0010031613168890606
:10439000FCD50028D6D020205249B0600860D5E76F
:1043A00007B9012798FBF7F000B2BDE8F28F38B5E6
:1043B000FFF75AFE03F095FF2A48294902688A61EF
:1043C00042680A608368284A1360C36853610369BE
:1043D00053634369936383695366C469234B9C6643
:1043E000046A1C60456A224C2560856A0D62C56AB4
:1043F0004D62056B8D62456BCD62856B8D65C16BC2
:104400001C4D2960016C1C4D2960416C5160816C10
:10441000D966016DC06C02F0D0F9FFF7CEFA3249CF
:10442000012008604020314908604FF0FF3060668D
:1044300031BD0A48006880B2704780B502F088F943
:1044400000B957E02A48006810F1010F18BF80B288
:1044500002BD0000540A0020185008403C410840AA
:10446000F840084014080020147008401860084004
:1044700004000840B8600840384008401062084016
:10448000400008460C400846303008401860084696
:104490000440084000400846004008445C1F0021DA
:1044A0002400084028700840FF0110C0147008461E
:1044B000F840084680846D001841084010410846C5
:1044C000FF3FC0E00040000133F33FFF10410844CC
:1044D000FF88F3FF384008468080FFFF3C700844A7
:1044E000307008403C700846400008440C400844C6
:1044F000C081E00F4FF0FF3002BD000070B5040036
:104500000D4613D001F0D8F8DFF8A006DFF8A0665A
:10451000DFF8A026002101602078022808D1106869
:1045200080021AD503203071FF203070012070BD49
:10453000012804D1106810F4400FF3D10DE00028D9
:10454000F0D1DFF874060068116800F0010080F017
:10455000010001F480010843E4D106222146301D08
:1045600004F062FF002000F071F8A088294600F0F6
:10457000D9F93079022802D100F051F806E001287B
:1045800002D100F033F801E000F017F8002000F04D
:104590005DF8DFF828160320086000F05BFA0020C1
:1045A00070BD80B50622DFF8181604F03DFF00202C
:1045B00002BDDFF8FC0500787047DFF8F005DFF892
:1045C0000426016811400160052241F0804141F05C
:1045D000040101600721DFF8F0054160DFF8EC1508
:1045E0004A60C0220260812008607047DFF8BC0585
:1045F000DFF8D02501681140016041F0030101603E
:104600000721DFF8CC05DFF8CC2581600621116099
:10461000DFF8C41541604FF4404101607047DFF896
:104620008C05DFF8A02501681140016041F0804150
:1046300001604FF4EE40DFF8A41508604FF48A41A2
:10464000DFF89C0541600121016070472DE9F843C6
:104650000546C82000F0C0F8DFF854150C79FF209B
:10466000032C08BF087000F0B580012CDFF8582536
:10467000DFF8383512D1082DA8BF072502DA012D41
:1046800008BF02251868DFF85C4520401860ECB2CE
:1046900040EA046018600420106596E01C68DFF8AA
:1046A000486534401C6044F47C5444F0C8041C60E9
:1046B0000C79260004D1052D02D301262D1F00E020
:1046C0000026DFF8F0743F68FF4307F4FE1747F455
:1046D0000057B7FA87F7C7F11307C7EB4717EDB2D3
:1046E000FFB2BD4288BF3D4614B90EB1042400E0BC
:1046F00000246419DFF8F47425B9DFF8F4C4C7F8AE
:1047000000C004E04FF0E06CC7F800C06D1EEDB2D1
:104710004FF01F0CB5FBFCFC4FF001080CF1010938
:1047200008FA09F8A8F10108D3F800E04FEA883840
:1047300008F47F1848EA0E0EC3F800E0CCEB4C1CDE
:10474000D3F800E0A5EB0C056D1C4EEA05651D6075
:104750004FF0FF3E3D6891F80390B9F1000F844699
:1047600016D0186891F804E0DFF888348002BEF1B2
:10477000020F18BF0833000EB0FA80F0C0F11F0E10
:104780004FFA8EFEBEF1000F58BF13F80EC0604600
:1047900025F07F43A5B215B9DFF85C040EE01EF1E9
:1047A000010F18BFFF2805D020B1000640F004001B
:1047B000184303E023F0040040F07F4038604FF4DA
:1047C00080000EB1DFF8042410600C70087800F04F
:1047D00003F8E0B2BDE8F283DFF8D4130A79032AC4
:1047E00000D17047F0B5DFF8C433DFF810441A6821
:1047F00022401A6040F20974120A02F47F55002226
:104800005B28A4BFCE88A64204DAC92805DBCE887F
:10481000A64202DA43F6C87501221E68DFF8E0738B
:1048200035431D601F28DFF8DC63DFF8DC33DFF879
:10483000DC534FF0010CB9BFC6F874C0C7F804C010
:10484000C3F874C0C5F804C091F802C0BCF1000FF1
:1048500019D05128A4BFB1F806C0A44504DA7928BC
:1048600011DBC888A0420EDA4DF60170306738605F
:10487000102002B11720000240F440401867286061
:1048800008201860F0BD08203060F0BDC848012144
:1048900001E0C7480021817000789DE710B501F064
:1048A00071FFDFF86C4328B12068216800F00CF834
:1048B000206004E0A069A16900F006F8A0614FF053
:1048C0000070D449086010BD490820F47F1001F43D
:1048D000FE1108437047704738B501F053FFCE4CC6
:1048E000CE494FF40015002814BF2560A5614FF094
:1048F0000060086031BDAE480089704710B50446BD
:1049000000F0A8F8AA48C64A41781268C2F3821299
:10491000914205D0C068214600F004F8012010BD86
:10492000002010BDF0B583B00C46002700B901206F
:104930009F4DE860BA480068800900F00700687081
:10494000801E012801D9001F01D1002610E028791E
:10495000E978022804D100290CBF9626C82607E072
:10496000012808BF322603D0002914BFF026B42640
:10497000F9B2304600F048F8E968814202D37F1C62
:10498000102FF5D30FF2B822D2E90001CDE90001D2
:10499000781E0002009030040190684600F008F88C
:1049A00000F011F82881204602F0E1F92889FEBDC7
:1049B00041689C4A116040F6FF719B4A1160006893
:1049C0009A49086070472DE9F041994948684D6857
:1049D0004C680A680E680F6802F00F01C0B200F060
:1049E00013F880462804C6F30311000E00F00CF8FB
:1049F00000EB0805380A00F00F012002000E00F05D
:104A000003F84019BDE8F08138B504460D4608F0BA
:104A100022FC6421B0FBF1F004FA05F1491142F2E5
:104A200010725143B1FBF0F032BD824B824A1A60E2
:104A30000204000502F4E02200F0F870104301F0D7
:104A400007020901104301F4F87108437B4908602B
:104A50007047000080B501F084FE401E082817D87A
:104A6000DFE800F005160E0E101013131300504867
:104A70000079012819BF042100200421042009E045
:104A8000002103E00321032004E00A21002001E0CB
:104A90000A210F20BDE80440C7E74549C8707047A8
:104AA00043480179C088B0F5E16F06DD11B90FF216
:104AB000A01070470FF29010704711B90FF2A010BC
:104AC00070470FF29410704738B50446FFF7E8FFBF
:104AD0003749097901290DD106220FF28C1030F9DE
:104AE00012309C4203DA521E12B2002AF7D1501C37
:104AF000C0B232BDB0F90010A142B8BF0C46A4F15B
:104B0000C801282291FBF2F14A4212B2082AA8BF3A
:104B10000722436803EBC2014D68B1F9021011FB93
:104B2000045100294EBF00214FF47A75B1FBF5F115
:104B3000521C12B2082A03DA33F832508D42E8D2FE
:104B400003EBC20030F8080C884238BF0146C8B2F7
:104B500032BD10B504461648007901280CD1082C46
:104B6000A8BF072401DA200000D0641E0FF2F8006D
:104B7000E4B230F9140010BDFFF792FF0021406845
:104B800000EBC1021289A24202D3491C0729F7DBBC
:104B900000EBC1004FF47A714268B0F9020011FBDA
:104BA00004F1891A91FBF0F000B210BDE81F00215A
:104BB0007801002088410E40D481E00F584108441C
:104BC0007C010020E8FFFFBF084108440841084677
:104BD000044108440C410846C100400024410844F7
:104BE000204108463F00C0E0FF3FC0E05841084078
:104BF0002C000007B083E00F0400000737C0FFFF60
:104C00001C41084494400844944008461C4108460E
:104C1000004108401C40084000410844204008442E
:104C200018600840BC600840B8600844B860084696
:104C3000B860084050410844F701F7015041084668
:104C40000000000000000000C800FCFE3C920700CD
:104C5000C800FCFEFC9107009600FCFEBC92070019
:104C60008C00FCFE7C92070083FFBFFFE2FFF1FF98
:104C7000F9FFFEFF00000000012100F01F0291403B
:104C8000DFF8E426400942F820107047890001EB64
:104C9000401000F18440006870472DE9F047DFF8CC
:104CA000CC460121204603F069FBDFF8C456DFF84B
:104CB000C4062860204603F080FB4FF47A71B0FBF5
:104CC000F1F64FF4FA707043010EDFF8AC260023C2
:104CD00012EB00205941DFF8A42603F08DFC0400FC
:104CE000A4F58070A86204D12B210020FEF708FBF8
:104CF00001244FF47A7000FB04F20020310200EB33
:104D00005200002303F078FCDFF8747680468A4670
:104D10004FEA1429C7F800A0C7F80480240626B972
:104D20002B210020FEF7ECFA01264FF47A70A0FB4D
:104D30000423002100FB093312EB5600594132468F
:104D4000002303F059FCF860B96018F102004AF141
:104D50000001800840EA8170401E2863BDE8F087AA
:104D600080B51D20FFF788FFDFF818164FF00050C0
:104D70000860012009E080B51D20FFF77DFFDFF806
:104D800008164FF0005008600420DFF80016086095
:104D900001BD30B504460D46101B63EB0501AB4267
:104DA0000FD828BFA2420CD2DFF8E42512680023F6
:104DB000521C63F1FF339B0043EA927310EB8200B5
:104DC000594130BDDFF8C41500280CBF20208020D9
:104DD000086070470004DFF8B42521B95063502003
:104DE0001066102003E01064A020106640201060C0
:104DF0007047DFF8A01500280CBF0868C868000CD1
:104E00007047DFF8942502EB001202F18062012165
:104E100011604FF4807101FA00F0DFF8801508602E
:104E200070472DE9F14F8CB09046994607F046FA4D
:104E300005909DF83000FFF7E4FF9DF85860022EC2
:104E400000F0FC8000F081F9012E82468B4607D1EC
:104E5000BAF1FF306BF1FF3118EB000849EB0109A3
:104E6000DFF82C6530680021401C61F1FF31CDE98D
:104E70000801DDE90845AD0045EA9475A400224625
:104E80002B464046494600F0E3F8804689465246A4
:104E90005B46A408FFF77DFF44EA8574AD088D42A8
:104EA00003D300D8844280F0A4809DF83010336C86
:104EB000DFF8EC54DFF8EC7409310A0241F61F7494
:104EC000002042F0010223409342F36B08BF04200C
:104ED00009062B4041F480318B42F16B08BF40F052
:104EE00002002140914208BF40F001000390424679
:104EF00010F00100049018BFC7E904899DF8300044
:104F00000290022808BFC7E902894B4600F09DF8CD
:104F1000DDE9082303F070FB02997854DDE90823EA
:104F20004046494600F094F88046039800F002009D
:104F3000069089460298385C70B1049810B1DFF889
:104F400068040460069810B1DFF85C0405600398FB
:104F5000400744BF002030640298DFF83C14000191
:104F60000A18C2F80C8011220A5000F0EEF802462E
:104F70000B4600F06AF8CDE90A01CDE90089DDE9C8
:104F80000823DDE908895046594603F035FB4246BF
:104F90004B46A0FB028900FB039901FB0299DDE966
:104FA000000110EB080241EB090300F04EF8DDE9C7
:104FB0000A238B4204D301D8824201D3012000E0AE
:104FC00000209DF830204FF480719140F26A0A4031
:104FD000521E924110EAD27F30D00298385C08B15C
:104FE00031632BE09DF8580040B99DF83000FFF781
:104FF00008FF059807F06CF9002023E03163DFF823
:10500000AC03049941B1DFF8A0130C6040F2011128
:105010000160DFF894130C60069941B1DFF8881342
:105020000D60DFF88C130160DFF87C0305600398E6
:10503000400703D5DFF87C1301200860059807F0CE
:1050400047F901200DB0BDE8F08F50465946A0E663
:1050500001E0801A99419942FBD828BF9042F8D2CA
:105060007047CD490001085800F00100704701F475
:105070006001C94A000141F003011150704770B549
:1050800082B000F01AF806F109000002CA4940F0A7
:10509000010009E070B582B000F00FF806F10900D8
:1050A0000002C64940F001100860224606980090B0
:1050B0002B463046FFF7B5FE76BD064614461D4624
:1050C0009FE670B582B0FFF7F8FFBC48BC4A0168A4
:1050D000114006F1090241EA026141F480310160A8
:1050E000E3E7B649B248086070472DE9F04EB54C89
:1050F000074620680025C00744BF0125FFF73BFE97
:1051000000206060A060E060AF4E3070384600F074
:10511000E3F807468946606A0021B0F1FF3A61F181
:10512000FF3B3846494652465B4603F065FA30700D
:105130004946384652465B4603F05EFAE2600DB1DE
:10514000FFF70EFE0120BDE8F08E2DE9F04107F0DB
:10515000AFF89E4F3C6880469B48067800F045F8C3
:10516000002508B13C68761C404607F0ADF8B869E8
:1051700006F00301401CE0FB014520462946BDE83E
:10518000F0812DE9F04700018349904D0A184FF056
:10519000000AD4680858400800F0010807F088F8B1
:1051A00081462E688848077800F01FF810B12E68F5
:1051B0007F1CFFB2484607F087F8B8F1000F05D012
:1051C000D24508D8A64206D27F1E04E0D24502D8B6
:1051D000B44238BF7F1CA86907F00301401CE0FB04
:1051E000014A20465146BDE8F087794802214DE545
:1051F000F8B55F4C0546206820F4700040F4A0002C
:1052000020601E46300008BF002141EA021040EA3B
:105210000641069841EA0061079841EA0020E064EF
:10522000E76AB7F5803F8041C00F1821FEF768F8A4
:10523000A76336B1288A00F04FF8874238BF0020B4
:10524000E063F1BD6348016811B9634A1021116040
:105250006249016341F201414163704780B52120F9
:1052600000F03CF949494FF48030086001BD80B539
:10527000232000F033F945494FF40030086001BDA8
:1052800080B5222000F02AF940494FF480200860C0
:1052900001BD80B5242000F021F95148006802BD0D
:1052A00010B50446252000F019F94D48046010BDE2
:1052B000F0B5334EB268A0FB024501FB0255F2681F
:1052C000A0FB026701FB0277B6F1004267F1FF33F2
:1052D0000021E0186941F0BD10B529490C68496802
:1052E000A0FB0123B2F1004263F1FF331A46002311
:1052F000E0FB04231046194610BD2DE9F84F044683
:10530000FFF723FF804689462046FFF7E5FF044666
:105310002C480D46416A490800910068C00702D434
:105320001FE0241A8D410027009EBD4203D8B442DD
:105330003CBF26462F46FFF708FF82468B46524663
:105340005B4640464946FFF724FDB942F3D301D8F6
:10535000B042F0D3A942D046D946E2D301D8A04208
:10536000DFD3BDE8F18F000080E200E0000406001A
:10537000005008400011010020A1070040420F002A
:10538000880A002000E100E080E100E004500840CD
:1053900030500840345008400051084064500840E4
:1053A00000001F1F700A00206C5008446C50084613
:1053B0000000010108400840705008406C5008404F
:1053C000FFFFE0E00C500840690A00201850084038
:1053D0005C5008403C50084000400846011B011842
:1053E0005450084038B5040045D0484D1422214699
:1053F000284604F0A0F80121454802F0BFFF012132
:10540000444806F0F9F84448F8218160E27A217AAC
:1054100041EA0221A27B41EA02414160217801294F
:1054200017D1022169610023072101600422617BF9
:10543000207B07F072FB217CE07B0023042207F035
:105440006CFBA17A607A0123042207F066FB00203E
:1054500032BD022904D10121696105210160EAE719
:10546000032904D10521696101210160E9E711B92E
:1054700069610160EBE7012032BD70B50446200090
:10548000264D15D0214E7168002049B1204802F008
:1054900094FF716800EB5100B0FBF1F0401E000278
:1054A0004FF603712960716908431D49086001E0E6
:1054B00003202860204600F009F8002070BD80B568
:1054C0001422124904F037F8002002BD002814BF4E
:1054D000144815484FF0804101607047134909682E
:1054E000002944BF124908607047002814BF0D48C6
:1054F0000D484FF0004101607047002814BF094873
:1055000009484FF00061016070470000980A0020D0
:105510000034060000350800740008407C00084490
:105520007C00084694400846944008449440084053
:105530008000084010B5040001D1012010BDA07802
:10554000617940EA0120104908602179E078002360
:10555000042207F0E2FAE179A0790023042207F09F
:10556000DCFA227809480A49002A19BF08220A6091
:10557000082202606278002A19BF102008601021FA
:105580000160002010BD00BFC8600840C060084432
:10559000C0600846890001EB401000F184400068BB
:1055A000704780B5684607F00AFEDFF8A007DFF80D
:1055B000A017DFF8A027016148F2E67141604FF4BF
:1055C00008610160DFF89007DFF8901741604AF644
:1055D0003F4111604FF0C071DFF884271160002156
:1055E0000166DFF8801701607F20DFF87C17086014
:1055F0002320DFF87817086001BD10B5DFF87007C9
:10560000DFF870470168426849B10B0C1B04A342E4
:1056100008BF0A600830DFF860178842F2D310BD77
:1056200010B500F049F8FFF7E8FFFFF7BAFFDFF821
:105630004C17DFF84C47032008604FF40020DFF8D8
:10564000441708600120206001F0DFF9DFF8381707
:105650004FF4607008604FF040706066E06710BD06
:1056600010B5DFF8243782B001221A60DFF81C473A
:105670002268120E12F00F02FAD14FF00452A26704
:105680000122E2678A0001464FF0045003F053FF05
:10569000DFF8FC06E065DFF8FC46DFF8FC06216871
:1056A0000091A42103F0F3FFDFF8F006DFF8F01615
:1056B00001600099216013BD80B50121DFF8E40687
:1056C00002F05CFE0121DFF8E00602F057FE012146
:1056D000DFF8D80602F052FE0121DFF8D40602F00E
:1056E0004DFE0121DFF8CC0602F048FE0121DFF873
:1056F000C80602F043FE0121DFF8C00602F03EFEBC
:10570000BDE804400121DFF8B80602F037BE2DE9FC
:10571000FD4F82B00C46FFF718FDFFF7C9FD019061
:105720000025029800260028B14656D152E05D447B
:105730008146029850F8250010F1010F49D0310040
:1057400047D10090C0F3074B21686D1C0BEB09009B
:105750008142ECD20098000F37D1002710E0FFF70C
:10576000F4FCFFF7A5FD0199401A039988422068CF
:1057700028BF0426401C20606D1C09F101097F1C14
:10578000FFB25F45D5D23000D3D120688145F3D137
:10579000029850F82510009800EB8700020103D40E
:1057A0009DF81020002ADAD0C0F302625AF82220B5
:1057B00083B21A4312688A42D1D05FEA080302D04A
:1057C000C0470028CBD10226D6E7AD1C09F101095C
:1057D000AFE7304605B0BDE8F08FDDF838800FF256
:1057E000406AA6E7F8B504460D460FF2346600E0BD
:1057F0000860002D1CBF286810F1010F3FD055F83C
:10580000042BC2F3026156F8211093B2C2F3074091
:105810001943022808D300281EBF55F8042B41F86D
:10582000042B401EF7D1E4E755F8040B120F4FF09C
:10583000010C072A01F1C06301F180670CFA00FE38
:10584000D7D8DFE802F00506090C0E111417D0E7CF
:10585000CEE7C0433860CCE70A685040C8E718601C
:10586000C7E7FFF74AFDC4E7C3F800E0C1E7C7F8A0
:1058700000E0BEE70A6802408242FBD1B9E7204659
:10588000FFF73CF801F068F9DFF83805006810F41C
:10589000E05F03D1DFF8301520200860F1BDDFF8AC
:1058A000EC040068000E00F00F00022818BF032867
:1058B00001D10120704700207047DFF81005016812
:1058C00000208A0648BF0420CA0644BF801CC0B21C
:1058D0000A0744BF801CC0B24A0744BF801CC0B244
:1058E0008A0744BF401CC0B2C90744BF401CC0B2B5
:1058F0007047DFF8DC2402EB800000F180634FF496
:10590000407200F1C0601A6009020160704730B552
:10591000DFF8BC4404EB800404F1806547F6FF40E7
:105920002860180340EA8232039842EAC0220498B1
:1059300042EA8020084304F1C061086030BDF0B540
:1059400083B004460D4616461F4600F009F80020B5
:10595000FFF7DDFF00F004F80220FFF7D8FFF7BDE6
:10596000019700962B462246FF217047FEF725B887
:10597000DFF80C1401E0DFF85C144FF4807008606D
:105980007047DFF8FC1301E0DFF8481401200860DD
:105990007047002814BFDFF8E803DFF838044FF041
:1059A000005101607047DFF8DC03006810F01D0053
:1059B00018BF01207047DFF8C81301E0DFF81414A6
:1059C00080200860704780B5112005F051FEDFF897
:1059D000081409688AB232B1C008C1F307414843CC
:1059E000B0FBF2F002BD002002BD38B5DFF8EC03D9
:1059F0004168006801F00702082AC0F344141AD273
:105A00000FF224439A5CC1F3CD035B1CC1F3454103
:105A10005A43491C5143C0F3822200F01F0014FB7B
:105A200002004843450006D0112005F021FE6043E6
:105A3000B0FBF5F032BD002032BD80B5FFF7C3FFEB
:105A4000DFF89C13096801F03002102A04D0202AE4
:105A500004D0302A08D002BD400802BDC1F3C421E1
:105A6000491CB0FBF1F002BD800802BD10B5DC4856
:105A7000016801F03002202A0FD1C1F3024018B1B1
:105A8000C1F3C422B2FBF0F011F4C01F18BF4000F4
:105A90004408032C0AD3042408E0006800F4E070F2
:105AA000402816BFB0F5807F02240124FFF7C5FF10
:105AB000604310BDF8B5044606F000FC0646FFF74B
:105AC000EEFE0546C7480068C0F38917B80544BF15
:105AD000C5480743FFF7E3FE00B90025304606F04E
